{"abi":[{"type":"constructor","inputs":[],"stateMutability":"nonpayable"},{"type":"function","name":"MAX_SUPPLY","inputs":[],"outputs":[{"name":"","type":"uint256","internalType":"uint256"}],"stateMutability":"view"},{"type":"function","name":"MINT_PRICE","inputs":[],"outputs":[{"name":"","type":"uint256","internalType":"uint256"}],"stateMutability":"view"},{"type":"function","name":"approve","inputs":[{"name":"to","type":"address","internalType":"address"},{"name":"tokenId","type":"uint256","internalType":"uint256"}],"outputs":[],"stateMutability":"payable"},{"type":"function","name":"balanceOf","inputs":[{"name":"owner","type":"address","internalType":"address"}],"outputs":[{"name":"","type":"uint256","internalType":"uint256"}],"stateMutability":"view"},{"type":"function","name":"getApproved","inputs":[{"name":"tokenId","type":"uint256","internalType":"uint256"}],"outputs":[{"name":"","type":"address","internalType":"address"}],"stateMutability":"view"},{"type":"function","name":"isApprovedForAll","inputs":[{"name":"owner","type":"address","internalType":"address"},{"name":"operator","type":"address","internalType":"address"}],"outputs":[{"name":"","type":"bool","internalType":"bool"}],"stateMutability":"view"},{"type":"function","name":"mint","inputs":[{"name":"quantity","type":"uint256","internalType":"uint256"}],"outputs":[],"stateMutability":"payable"},{"type":"function","name":"name","inputs":[],"outputs":[{"name":"","type":"string","internalType":"string"}],"stateMutability":"view"},{"type":"function","name":"ownerOf","inputs":[{"name":"tokenId","type":"uint256","internalType":"uint256"}],"outputs":[{"name":"","type":"address","internalType":"address"}],"stateMutability":"view"},{"type":"function","name":"safeTransferFrom","inputs":[{"name":"from","type":"address","internalType":"address"},{"name":"to","type":"address","internalType":"address"},{"name":"tokenId","type":"uint256","internalType":"uint256"}],"outputs":[],"stateMutability":"payable"},{"type":"function","name":"safeTransferFrom","inputs":[{"name":"from","type":"address","internalType":"address"},{"name":"to","type":"address","internalType":"address"},{"name":"tokenId","type":"uint256","internalType":"uint256"},{"name":"_data","type":"bytes","internalType":"bytes"}],"outputs":[],"stateMutability":"payable"},{"type":"function","name":"setApprovalForAll","inputs":[{"name":"operator","type":"address","internalType":"address"},{"name":"approved","type":"bool","internalType":"bool"}],"outputs":[],"stateMutability":"nonpayable"},{"type":"function","name":"supportsInterface","inputs":[{"name":"interfaceId","type":"bytes4","internalType":"bytes4"}],"outputs":[{"name":"","type":"bool","internalType":"bool"}],"stateMutability":"view"},{"type":"function","name":"symbol","inputs":[],"outputs":[{"name":"","type":"string","internalType":"string"}],"stateMutability":"view"},{"type":"function","name":"tokenURI","inputs":[{"name":"tokenId","type":"uint256","internalType":"uint256"}],"outputs":[{"name":"","type":"string","internalType":"string"}],"stateMutability":"view"},{"type":"function","name":"totalSupply","inputs":[],"outputs":[{"name":"result","type":"uint256","internalType":"uint256"}],"stateMutability":"view"},{"type":"function","name":"transferFrom","inputs":[{"name":"from","type":"address","internalType":"address"},{"name":"to","type":"address","internalType":"address"},{"name":"tokenId","type":"uint256","internalType":"uint256"}],"outputs":[],"stateMutability":"payable"},{"type":"event","name":"Approval","inputs":[{"name":"owner","type":"address","indexed":true,"internalType":"address"},{"name":"approved","type":"address","indexed":true,"internalType":"address"},{"name":"tokenId","type":"uint256","indexed":true,"internalType":"uint256"}],"anonymous":false},{"type":"event","name":"ApprovalForAll","inputs":[{"name":"owner","type":"address","indexed":true,"internalType":"address"},{"name":"operator","type":"address","indexed":true,"internalType":"address"},{"name":"approved","type":"bool","indexed":false,"internalType":"bool"}],"anonymous":false},{"type":"event","name":"ConsecutiveTransfer","inputs":[{"name":"fromTokenId","type":"uint256","indexed":true,"internalType":"uint256"},{"name":"toTokenId","type":"uint256","indexed":false,"internalType":"uint256"},{"name":"from","type":"address","indexed":true,"internalType":"address"},{"name":"to","type":"address","indexed":true,"internalType":"address"}],"anonymous":false},{"type":"event","name":"Transfer","inputs":[{"name":"from","type":"address","indexed":true,"internalType":"address"},{"name":"to","type":"address","indexed":true,"internalType":"address"},{"name":"tokenId","type":"uint256","indexed":true,"internalType":"uint256"}],"anonymous":false},{"type":"error","name":"ApprovalCallerNotOwnerNorApproved","inputs":[]},{"type":"error","name":"ApprovalQueryForNonexistentToken","inputs":[]},{"type":"error","name":"BalanceQueryForZeroAddress","inputs":[]},{"type":"error","name":"MintERC2309QuantityExceedsLimit","inputs":[]},{"type":"error","name":"MintToZeroAddress","inputs":[]},{"type":"error","name":"MintZeroQuantity","inputs":[]},{"type":"error","name":"NotCompatibleWithSpotMints","inputs":[]},{"type":"error","name":"OwnerQueryForNonexistentToken","inputs":[]},{"type":"error","name":"OwnershipNotInitializedForExtraData","inputs":[]},{"type":"error","name":"SequentialMintExceedsLimit","inputs":[]},{"type":"error","name":"SequentialUpToTooSmall","inputs":[]},{"type":"error","name":"SpotMintTokenIdTooSmall","inputs":[]},{"type":"error","name":"TokenAlreadyExists","inputs":[]},{"type":"error","name":"TransferCallerNotOwnerNorApproved","inputs":[]},{"type":"error","name":"TransferFromIncorrectOwner","inputs":[]},{"type":"error","name":"TransferToNonERC721ReceiverImplementer","inputs":[]},{"type":"error","name":"TransferToZeroAddress","inputs":[]},{"type":"error","name":"URIQueryForNonexistentToken","inputs":[]}],"bytecode":{"object":"0x608060405234801561000f575f5ffd5b506040518060400160405280601081526020017f4d6f6e61642053696d706c65204e4654000000000000000000000000000000008152506040518060400160405280600381526020017f4d534e0000000000000000000000000000000000000000000000000000000000815250816002908161008b9190610362565b50806003908161009b9190610362565b506100aa6100ef60201b60201c565b5f819055506100bd6100ef60201b60201c565b6100cb6100f660201b60201c565b10156100e8576100e763fed8210f60e01b61011d60201b60201c565b5b5050610431565b5f5f905090565b5f7fffffffffffffffffffffffffffffffffffffffffffffffffffffffffffffffff905090565b805f5260045ffd5b5f81519050919050565b7f4e487b71000000000000000000000000000000000000000000000000000000005f52604160045260245ffd5b7f4e487b71000000000000000000000000000000000000000000000000000000005f52602260045260245ffd5b5f60028204905060018216806101a057607f821691505b6020821081036101b3576101b261015c565b5b50919050565b5f819050815f5260205f209050919050565b5f6020601f8301049050919050565b5f82821b905092915050565b5f600883026102157fffffffffffffffffffffffffffffffffffffffffffffffffffffffffffffffff826101da565b61021f86836101da565b95508019841693508086168417925050509392505050565b5f819050919050565b5f819050919050565b5f61026361025e61025984610237565b610240565b610237565b9050919050565b5f819050919050565b61027c83610249565b6102906102888261026a565b8484546101e6565b825550505050565b5f5f905090565b6102a7610298565b6102b2818484610273565b505050565b5b818110156102d5576102ca5f8261029f565b6001810190506102b8565b5050565b601f82111561031a576102eb816101b9565b6102f4846101cb565b81016020851015610303578190505b61031761030f856101cb565b8301826102b7565b50505b505050565b5f82821c905092915050565b5f61033a5f198460080261031f565b1980831691505092915050565b5f610352838361032b565b9150826002028217905092915050565b61036b82610125565b67ffffffffffffffff8111156103845761038361012f565b5b61038e8254610189565b6103998282856102d9565b5f60209050601f8311600181146103ca575f84156103b8578287015190505b6103c28582610347565b865550610429565b601f1984166103d8866101b9565b5f5b828110156103ff578489015182556001820191506020850194506020810190506103da565b8683101561041c5784890151610418601f89168261032b565b8355505b6001600288020188555050505b505050505050565b611cc18061043e5f395ff3fe6080604052600436106100fd575f3560e01c80636352211e11610094578063a22cb46511610063578063a22cb46514610309578063b88d4fde14610331578063c002d23d1461034d578063c87b56dd14610377578063e985e9c5146103b3576100fd565b80636352211e1461024b57806370a082311461028757806395d89b41146102c3578063a0712d68146102ed576100fd565b806318160ddd116100d057806318160ddd146101bf57806323b872dd146101e957806332cb6b0c1461020557806342842e0e1461022f576100fd565b806301ffc9a71461010157806306fdde031461013d578063081812fc14610167578063095ea7b3146101a3575b5f5ffd5b34801561010c575f5ffd5b5061012760048036038101906101229190611506565b6103ef565b604051610134919061154b565b60405180910390f35b348015610148575f5ffd5b50610151610480565b60405161015e91906115d4565b60405180910390f35b348015610172575f5ffd5b5061018d60048036038101906101889190611627565b610510565b60405161019a9190611691565b60405180910390f35b6101bd60048036038101906101b891906116d4565b610569565b005b3480156101ca575f5ffd5b506101d3610579565b6040516101e09190611721565b60405180910390f35b61020360048036038101906101fe919061173a565b6105c4565b005b348015610210575f5ffd5b5061021961086f565b6040516102269190611721565b60405180910390f35b6102496004803603810190610244919061173a565b610875565b005b348015610256575f5ffd5b50610271600480360381019061026c9190611627565b610894565b60405161027e9190611691565b60405180910390f35b348015610292575f5ffd5b506102ad60048036038101906102a8919061178a565b6108a5565b6040516102ba9190611721565b60405180910390f35b3480156102ce575f5ffd5b506102d7610939565b6040516102e491906115d4565b60405180910390f35b61030760048036038101906103029190611627565b6109c9565b005b348015610314575f5ffd5b5061032f600480360381019061032a91906117df565b610a2d565b005b61034b60048036038101906103469190611949565b610b33565b005b348015610358575f5ffd5b50610361610b84565b60405161036e9190611721565b60405180910390f35b348015610382575f5ffd5b5061039d60048036038101906103989190611627565b610b88565b6040516103aa91906115d4565b60405180910390f35b3480156103be575f5ffd5b506103d960048036038101906103d491906119c9565b610c02565b6040516103e6919061154b565b60405180910390f35b5f6301ffc9a760e01b827bffffffffffffffffffffffffffffffffffffffffffffffffffffffff1916148061044957506380ac58cd60e01b827bffffffffffffffffffffffffffffffffffffffffffffffffffffffff1916145b806104795750635b5e139f60e01b827bffffffffffffffffffffffffffffffffffffffffffffffffffffffff1916145b9050919050565b60606002805461048f90611a34565b80601f01602080910402602001604051908101604052809291908181526020018280546104bb90611a34565b80156105065780601f106104dd57610100808354040283529160200191610506565b820191905f5260205f20905b8154815290600101906020018083116104e957829003601f168201915b5050505050905090565b5f61051a82610c90565b61052f5761052e63cf4700e460e01b610d33565b5b60065f8381526020019081526020015f205f015f9054906101000a900473ffffffffffffffffffffffffffffffffffffffff169050919050565b61057582826001610d3b565b5050565b5f610582610e65565b6001545f54030390507fffffffffffffffffffffffffffffffffffffffffffffffffffffffffffffffff6105b4610e6c565b146105c157600854810190505b90565b5f6105ce82610e93565b905073ffffffffffffffffffffffffffffffffffffffff8473ffffffffffffffffffffffffffffffffffffffff161693508373ffffffffffffffffffffffffffffffffffffffff168173ffffffffffffffffffffffffffffffffffffffff16146106435761064263a114810060e01b610d33565b5b5f5f61064e84610fa2565b91509150610664818761065f610fc5565b610fcc565b61068f5761067986610674610fc5565b610c02565b61068e5761068d6359c896be60e01b610d33565b5b5b61069c868686600161100f565b80156106a6575f82555b60055f8773ffffffffffffffffffffffffffffffffffffffff1673ffffffffffffffffffffffffffffffffffffffff1681526020019081526020015f205f8154600190039190508190555060055f8673ffffffffffffffffffffffffffffffffffffffff1673ffffffffffffffffffffffffffffffffffffffff1681526020019081526020015f205f81546001019190508190555061076e8561074a888887611015565b7c02000000000000000000000000000000000000000000000000000000001761103c565b60045f8681526020019081526020015f20819055505f7c02000000000000000000000000000000000000000000000000000000008416036107ea575f6001850190505f60045f8381526020019081526020015f2054036107e8575f5481146107e7578360045f8381526020019081526020015f20819055505b5b505b5f73ffffffffffffffffffffffffffffffffffffffff8673ffffffffffffffffffffffffffffffffffffffff161690508481887fddf252ad1be2c89b69c2b068fc378daa952ba7f163c4a11628f55a4df523b3ef5f5fa45f81036108595761085863ea553b3460e01b610d33565b5b6108668787876001611066565b50505050505050565b61271081565b61088f83838360405180602001604052805f815250610b33565b505050565b5f61089e82610e93565b9050919050565b5f5f73ffffffffffffffffffffffffffffffffffffffff168273ffffffffffffffffffffffffffffffffffffffff16036108ea576108e9638f4eb60460e01b610d33565b5b67ffffffffffffffff60055f8473ffffffffffffffffffffffffffffffffffffffff1673ffffffffffffffffffffffffffffffffffffffff1681526020019081526020015f2054169050919050565b60606003805461094890611a34565b80601f016020809104026020016040519081016040528092919081815260200182805461097490611a34565b80156109bf5780601f10610996576101008083540402835291602001916109bf565b820191905f5260205f20905b8154815290600101906020018083116109a257829003601f168201915b5050505050905090565b612710816109d561106c565b6109df9190611a91565b1115610a20576040517f08c379a0000000000000000000000000000000000000000000000000000000008152600401610a1790611b0e565b60405180910390fd5b610a2a33826110b3565b50565b8060075f610a39610fc5565b73ffffffffffffffffffffffffffffffffffffffff1673ffffffffffffffffffffffffffffffffffffffff1681526020019081526020015f205f8473ffffffffffffffffffffffffffffffffffffffff1673ffffffffffffffffffffffffffffffffffffffff1681526020019081526020015f205f6101000a81548160ff0219169083151502179055508173ffffffffffffffffffffffffffffffffffffffff16610ae2610fc5565b73ffffffffffffffffffffffffffffffffffffffff167f17307eab39ab6107e8899845ad3d59bd9653f200f220920489ca2b5937696c3183604051610b27919061154b565b60405180910390a35050565b610b3e8484846105c4565b5f8373ffffffffffffffffffffffffffffffffffffffff163b14610b7e57610b68848484846110d0565b610b7d57610b7c63d1a57ed660e01b610d33565b5b5b50505050565b5f81565b6060610b9382610c90565b610ba857610ba763a14c4b5060e01b610d33565b5b5f610bb16111fa565b90505f815103610bcf5760405180602001604052805f815250610bfa565b80610bd984611210565b604051602001610bea929190611b66565b6040516020818303038152906040525b915050919050565b5f60075f8473ffffffffffffffffffffffffffffffffffffffff1673ffffffffffffffffffffffffffffffffffffffff1681526020019081526020015f205f8373ffffffffffffffffffffffffffffffffffffffff1673ffffffffffffffffffffffffffffffffffffffff1681526020019081526020015f205f9054906101000a900460ff16905092915050565b5f81610c9a610e65565b11610d2d57610ca7610e6c565b821115610ccf57610cc860045f8481526020019081526020015f205461125f565b9050610d2e565b5f54821015610d2c575f5b5f60045f8581526020019081526020015f205491508103610d065782610cff90611b89565b9250610cda565b5f7c01000000000000000000000000000000000000000000000000000000008216149150505b5b5b919050565b805f5260045ffd5b5f610d4583610894565b9050818015610d8757508073ffffffffffffffffffffffffffffffffffffffff16610d6e610fc5565b73ffffffffffffffffffffffffffffffffffffffff1614155b15610db357610d9d81610d98610fc5565b610c02565b610db257610db163cfb3b94260e01b610d33565b5b5b8360065f8581526020019081526020015f205f015f6101000a81548173ffffffffffffffffffffffffffffffffffffffff021916908373ffffffffffffffffffffffffffffffffffffffff160217905550828473ffffffffffffffffffffffffffffffffffffffff168273ffffffffffffffffffffffffffffffffffffffff167f8c5be1e5ebec7d5bd14f71427d1e84f3dd0314c0f7b2291e5b200ac8c7c3b92560405160405180910390a450505050565b5f5f905090565b5f7fffffffffffffffffffffffffffffffffffffffffffffffffffffffffffffffff905090565b5f81610e9d610e65565b11610f8c5760045f8381526020019081526020015f20549050610ebe610e6c565b821115610ee357610ece8161125f565b610f9d57610ee263df2d9b4260e01b610d33565b5b5f8103610f64575f548210610f0357610f0263df2d9b4260e01b610d33565b5b5b60045f836001900393508381526020019081526020015f205490505f810315610f5f575f7c010000000000000000000000000000000000000000000000000000000082160315610f9d57610f5e63df2d9b4260e01b610d33565b5b610f04565b5f7c010000000000000000000000000000000000000000000000000000000082160315610f9d575b610f9c63df2d9b4260e01b610d33565b5b919050565b5f5f5f60065f8581526020019081526020015f2090508092508254915050915091565b5f33905090565b5f73ffffffffffffffffffffffffffffffffffffffff8316925073ffffffffffffffffffffffffffffffffffffffff821691508382148383141790509392505050565b50505050565b5f5f60e883901c905060e861102b86868461129f565b62ffffff16901b9150509392505050565b5f73ffffffffffffffffffffffffffffffffffffffff83169250814260a01b178317905092915050565b50505050565b5f611075610e65565b5f540390507fffffffffffffffffffffffffffffffffffffffffffffffffffffffffffffffff6110a3610e6c565b146110b057600854810190505b90565b6110cc828260405180602001604052805f8152506112a7565b5050565b5f8373ffffffffffffffffffffffffffffffffffffffff1663150b7a026110f5610fc5565b8786866040518563ffffffff1660e01b81526004016111179493929190611c02565b6020604051808303815f875af192505050801561115257506040513d601f19601f8201168201806040525081019061114f9190611c60565b60015b6111a7573d805f8114611180576040519150601f19603f3d011682016040523d82523d5f602084013e611185565b606091505b505f81510361119f5761119e63d1a57ed660e01b610d33565b5b805181602001fd5b63150b7a0260e01b7bffffffffffffffffffffffffffffffffffffffffffffffffffffffff1916817bffffffffffffffffffffffffffffffffffffffffffffffffffffffff191614915050949350505050565b606060405180602001604052805f815250905090565b606060a060405101806040526020810391505f825281835b60011561124a57600184039350600a81066030018453600a8104905080611228575b50828103602084039350808452505050919050565b5f7c0100000000000000000000000000000000000000000000000000000000821673ffffffffffffffffffffffffffffffffffffffff8316119050919050565b5f9392505050565b6112b1838361131d565b5f8373ffffffffffffffffffffffffffffffffffffffff163b14611318575f5f5490505f83820390505b6112ed5f8683806001019450866110d0565b6113025761130163d1a57ed660e01b610d33565b5b8181106112db57815f5414611315575f5ffd5b50505b505050565b5f5f5490505f820361133a5761133963b562e8dd60e01b610d33565b5b6113465f84838561100f565b611364836113555f865f611015565b61135e85611491565b1761103c565b60045f8381526020019081526020015f2081905550600160406001901b17820260055f8573ffffffffffffffffffffffffffffffffffffffff1673ffffffffffffffffffffffffffffffffffffffff1681526020019081526020015f205f82825401925050819055505f73ffffffffffffffffffffffffffffffffffffffff8473ffffffffffffffffffffffffffffffffffffffff161690505f810361141557611414632e07630060e01b610d33565b5b5f83830190505f839050611427610e6c565b600183031115611442576114416381647e3a60e01b610d33565b5b5b80835f7fddf252ad1be2c89b69c2b068fc378daa952ba7f163c4a11628f55a4df523b3ef5f5fa481816001019150810361144357815f8190555050505061148c5f848385611066565b505050565b5f6001821460e11b9050919050565b5f604051905090565b5f5ffd5b5f5ffd5b5f7fffffffff0000000000000000000000000000000000000000000000000000000082169050919050565b6114e5816114b1565b81146114ef575f5ffd5b50565b5f81359050611500816114dc565b92915050565b5f6020828403121561151b5761151a6114a9565b5b5f611528848285016114f2565b91505092915050565b5f8115159050919050565b61154581611531565b82525050565b5f60208201905061155e5f83018461153c565b92915050565b5f81519050919050565b5f82825260208201905092915050565b8281835e5f83830152505050565b5f601f19601f8301169050919050565b5f6115a682611564565b6115b0818561156e565b93506115c081856020860161157e565b6115c98161158c565b840191505092915050565b5f6020820190508181035f8301526115ec818461159c565b905092915050565b5f819050919050565b611606816115f4565b8114611610575f5ffd5b50565b5f81359050611621816115fd565b92915050565b5f6020828403121561163c5761163b6114a9565b5b5f61164984828501611613565b91505092915050565b5f73ffffffffffffffffffffffffffffffffffffffff82169050919050565b5f61167b82611652565b9050919050565b61168b81611671565b82525050565b5f6020820190506116a45f830184611682565b92915050565b6116b381611671565b81146116bd575f5ffd5b50565b5f813590506116ce816116aa565b92915050565b5f5f604083850312156116ea576116e96114a9565b5b5f6116f7858286016116c0565b925050602061170885828601611613565b9150509250929050565b61171b816115f4565b82525050565b5f6020820190506117345f830184611712565b92915050565b5f5f5f60608486031215611751576117506114a9565b5b5f61175e868287016116c0565b935050602061176f868287016116c0565b925050604061178086828701611613565b9150509250925092565b5f6020828403121561179f5761179e6114a9565b5b5f6117ac848285016116c0565b91505092915050565b6117be81611531565b81146117c8575f5ffd5b50565b5f813590506117d9816117b5565b92915050565b5f5f604083850312156117f5576117f46114a9565b5b5f611802858286016116c0565b9250506020611813858286016117cb565b9150509250929050565b5f5ffd5b5f5ffd5b7f4e487b71000000000000000000000000000000000000000000000000000000005f52604160045260245ffd5b61185b8261158c565b810181811067ffffffffffffffff8211171561187a57611879611825565b5b80604052505050565b5f61188c6114a0565b90506118988282611852565b919050565b5f67ffffffffffffffff8211156118b7576118b6611825565b5b6118c08261158c565b9050602081019050919050565b828183375f83830152505050565b5f6118ed6118e88461189d565b611883565b90508281526020810184848401111561190957611908611821565b5b6119148482856118cd565b509392505050565b5f82601f8301126119305761192f61181d565b5b81356119408482602086016118db565b91505092915050565b5f5f5f5f60808587031215611961576119606114a9565b5b5f61196e878288016116c0565b945050602061197f878288016116c0565b935050604061199087828801611613565b925050606085013567ffffffffffffffff8111156119b1576119b06114ad565b5b6119bd8782880161191c565b91505092959194509250565b5f5f604083850312156119df576119de6114a9565b5b5f6119ec858286016116c0565b92505060206119fd858286016116c0565b9150509250929050565b7f4e487b71000000000000000000000000000000000000000000000000000000005f52602260045260245ffd5b5f6002820490506001821680611a4b57607f821691505b602082108103611a5e57611a5d611a07565b5b50919050565b7f4e487b71000000000000000000000000000000000000000000000000000000005f52601160045260245ffd5b5f611a9b826115f4565b9150611aa6836115f4565b9250828201905080821115611abe57611abd611a64565b5b92915050565b7f45786365656473206d617820737570706c7900000000000000000000000000005f82015250565b5f611af860128361156e565b9150611b0382611ac4565b602082019050919050565b5f6020820190508181035f830152611b2581611aec565b9050919050565b5f81905092915050565b5f611b4082611564565b611b4a8185611b2c565b9350611b5a81856020860161157e565b80840191505092915050565b5f611b718285611b36565b9150611b7d8284611b36565b91508190509392505050565b5f611b93826115f4565b91505f8203611ba557611ba4611a64565b5b600182039050919050565b5f81519050919050565b5f82825260208201905092915050565b5f611bd482611bb0565b611bde8185611bba565b9350611bee81856020860161157e565b611bf78161158c565b840191505092915050565b5f608082019050611c155f830187611682565b611c226020830186611682565b611c2f6040830185611712565b8181036060830152611c418184611bca565b905095945050505050565b5f81519050611c5a816114dc565b92915050565b5f60208284031215611c7557611c746114a9565b5b5f611c8284828501611c4c565b9150509291505056fea264697066735822122044f0486284d09486571a49edc4493594c5ba6734e46c80fdf187efb2624188c464736f6c634300081e0033","linkReferences":{}},"methodIdentifiers":{"MAX_SUPPLY()":"32cb6b0c","MINT_PRICE()":"c002d23d","approve(address,uint256)":"095ea7b3","balanceOf(address)":"70a08231","getApproved(uint256)":"081812fc","isApprovedForAll(address,address)":"e985e9c5","mint(uint256)":"a0712d68","name()":"06fdde03","ownerOf(uint256)":"6352211e","safeTransferFrom(address,address,uint256)":"42842e0e","safeTransferFrom(address,address,uint256,bytes)":"b88d4fde","setApprovalForAll(address,bool)":"a22cb465","supportsInterface(bytes4)":"01ffc9a7","symbol()":"95d89b41","tokenURI(uint256)":"c87b56dd","totalSupply()":"18160ddd","transferFrom(address,address,uint256)":"23b872dd"},"id":0}